{
  "_format": "hh-sol-artifact-1",
  "contractName": "MultiBetExp",
  "sourceName": "contracts/MultiBet-Example.sol",
  "abi": [
    {
      "inputs": [],
      "stateMutability": "nonpayable",
      "type": "constructor"
    },
    {
      "anonymous": false,
      "inputs": [
        {
          "indexed": true,
          "internalType": "uint256",
          "name": "betId",
          "type": "uint256"
        },
        {
          "indexed": false,
          "internalType": "string",
          "name": "topic",
          "type": "string"
        },
        {
          "indexed": false,
          "internalType": "string[]",
          "name": "options",
          "type": "string[]"
        }
      ],
      "name": "BetCreated",
      "type": "event"
    },
    {
      "anonymous": false,
      "inputs": [
        {
          "indexed": true,
          "internalType": "uint256",
          "name": "betId",
          "type": "uint256"
        },
        {
          "indexed": true,
          "internalType": "address",
          "name": "user",
          "type": "address"
        },
        {
          "indexed": false,
          "internalType": "uint256",
          "name": "amount",
          "type": "uint256"
        },
        {
          "indexed": false,
          "internalType": "string",
          "name": "option",
          "type": "string"
        }
      ],
      "name": "BetPlaced",
      "type": "event"
    },
    {
      "anonymous": false,
      "inputs": [
        {
          "indexed": true,
          "internalType": "uint256",
          "name": "betId",
          "type": "uint256"
        },
        {
          "indexed": false,
          "internalType": "string",
          "name": "winningOption",
          "type": "string"
        }
      ],
      "name": "BetResolved",
      "type": "event"
    },
    {
      "inputs": [],
      "name": "betCount",
      "outputs": [
        {
          "internalType": "uint256",
          "name": "",
          "type": "uint256"
        }
      ],
      "stateMutability": "view",
      "type": "function"
    },
    {
      "inputs": [
        {
          "internalType": "string",
          "name": "_topic",
          "type": "string"
        },
        {
          "internalType": "string[]",
          "name": "_options",
          "type": "string[]"
        }
      ],
      "name": "createBet",
      "outputs": [],
      "stateMutability": "nonpayable",
      "type": "function"
    },
    {
      "inputs": [
        {
          "internalType": "uint256",
          "name": "betId",
          "type": "uint256"
        }
      ],
      "name": "getBet",
      "outputs": [
        {
          "internalType": "string",
          "name": "topic",
          "type": "string"
        },
        {
          "internalType": "bool",
          "name": "isResolved",
          "type": "bool"
        },
        {
          "internalType": "uint256",
          "name": "totalAmount",
          "type": "uint256"
        },
        {
          "internalType": "string",
          "name": "winningOption",
          "type": "string"
        }
      ],
      "stateMutability": "view",
      "type": "function"
    },
    {
      "inputs": [
        {
          "internalType": "uint256",
          "name": "betId",
          "type": "uint256"
        }
      ],
      "name": "getBetOptionInfos",
      "outputs": [
        {
          "internalType": "string[]",
          "name": "options",
          "type": "string[]"
        },
        {
          "internalType": "uint256[]",
          "name": "optionBets",
          "type": "uint256[]"
        },
        {
          "internalType": "uint256",
          "name": "totalAmount",
          "type": "uint256"
        }
      ],
      "stateMutability": "view",
      "type": "function"
    },
    {
      "inputs": [
        {
          "internalType": "uint256",
          "name": "betId",
          "type": "uint256"
        },
        {
          "internalType": "address",
          "name": "user",
          "type": "address"
        }
      ],
      "name": "getUserBet",
      "outputs": [
        {
          "internalType": "uint256[]",
          "name": "optionIndexes",
          "type": "uint256[]"
        },
        {
          "internalType": "uint256[]",
          "name": "betAmounts",
          "type": "uint256[]"
        }
      ],
      "stateMutability": "view",
      "type": "function"
    },
    {
      "inputs": [],
      "name": "owner",
      "outputs": [
        {
          "internalType": "address",
          "name": "",
          "type": "address"
        }
      ],
      "stateMutability": "view",
      "type": "function"
    },
    {
      "inputs": [
        {
          "internalType": "uint256",
          "name": "betId",
          "type": "uint256"
        },
        {
          "internalType": "string",
          "name": "_option",
          "type": "string"
        }
      ],
      "name": "placeBet",
      "outputs": [],
      "stateMutability": "payable",
      "type": "function"
    },
    {
      "inputs": [
        {
          "internalType": "uint256",
          "name": "betId",
          "type": "uint256"
        },
        {
          "internalType": "string",
          "name": "_winningOption",
          "type": "string"
        }
      ],
      "name": "resolveBet",
      "outputs": [],
      "stateMutability": "nonpayable",
      "type": "function"
    }
  ],
  "bytecode": "0x608060405234801561001057600080fd5b50336000806101000a81548173ffffffffffffffffffffffffffffffffffffffff021916908373ffffffffffffffffffffffffffffffffffffffff1602179055506123d2806100606000396000f3fe60806040526004361061007b5760003560e01c80638da5cb5b1161004e5780638da5cb5b14610144578063b8d64c611461016f578063c03fb87c14610198578063cf094497146101d65761007b565b8063061e494f146100805780630803d608146100c05780635e8af735146100ff5780636788be031461011b575b600080fd5b34801561008c57600080fd5b506100a760048036038101906100a291906116f1565b610201565b6040516100b79493929190611dc6565b60405180910390f35b3480156100cc57600080fd5b506100e760048036038101906100e291906116f1565b610411565b6040516100f693929190611cf1565b60405180910390f35b61011960048036038101906101149190611756565b610742565b005b34801561012757600080fd5b50610142600480360381019061013d9190611685565b610a94565b005b34801561015057600080fd5b50610159610cbe565b6040516101669190611cd6565b60405180910390f35b34801561017b57600080fd5b5061019660048036038101906101919190611756565b610ce2565b005b3480156101a457600080fd5b506101bf60048036038101906101ba919061171a565b6110af565b6040516101cd929190611d36565b60405180910390f35b3480156101e257600080fd5b506101eb6113ae565b6040516101f89190611f19565b60405180910390f35b6060600080606084600254811061024d576040517f08c379a000000000000000000000000000000000000000000000000000000000815260040161024490611e19565b60405180910390fd5b600060016000888152602001908152602001600020905080600001805461027390612226565b80601f016020809104026020016040519081016040528092919081815260200182805461029f90612226565b80156102ec5780601f106102c1576101008083540402835291602001916102ec565b820191906000526020600020905b8154815290600101906020018083116102cf57829003601f168201915b505050505095508060010160009054906101000a900460ff1694508060020154935084156103f55780600401816003015481548110610354577f4e487b7100000000000000000000000000000000000000000000000000000000600052603260045260246000fd5b9060005260206000209060020201600001805461037090612226565b80601f016020809104026020016040519081016040528092919081815260200182805461039c90612226565b80156103e95780601f106103be576101008083540402835291602001916103e9565b820191906000526020600020905b8154815290600101906020018083116103cc57829003601f168201915b50505050509250610408565b6040518060200160405280600081525092505b50509193509193565b606080600083600254811061045b576040517f08c379a000000000000000000000000000000000000000000000000000000000815260040161045290611e19565b60405180910390fd5b60006001600087815260200190815260200160002090506000816004018054905090508067ffffffffffffffff8111156104be577f4e487b7100000000000000000000000000000000000000000000000000000000600052604160045260246000fd5b6040519080825280602002602001820160405280156104f157816020015b60608152602001906001900390816104dc5790505b5095508067ffffffffffffffff811115610534577f4e487b7100000000000000000000000000000000000000000000000000000000600052604160045260246000fd5b6040519080825280602002602001820160405280156105625781602001602082028036833780820191505090505b50945060005b81811015610730578260040181815481106105ac577f4e487b7100000000000000000000000000000000000000000000000000000000600052603260045260246000fd5b906000526020600020906002020160000180546105c890612226565b80601f01602080910402602001604051908101604052809291908181526020018280546105f490612226565b80156106415780601f1061061657610100808354040283529160200191610641565b820191906000526020600020905b81548152906001019060200180831161062457829003601f168201915b505050505087828151811061067f577f4e487b7100000000000000000000000000000000000000000000000000000000600052603260045260246000fd5b60200260200101819052508260040181815481106106c6577f4e487b7100000000000000000000000000000000000000000000000000000000600052603260045260246000fd5b906000526020600020906002020160010154868281518110610711577f4e487b7100000000000000000000000000000000000000000000000000000000600052603260045260246000fd5b602002602001018181525050808061072890612258565b915050610568565b50816002015493505050509193909250565b816002548110610787576040517f08c379a000000000000000000000000000000000000000000000000000000000815260040161077e90611e19565b60405180910390fd5b60006001600085815260200190815260200160002090508060010160009054906101000a900460ff16156107f0576040517f08c379a00000000000000000000000000000000000000000000000000000000081526004016107e790611eb9565b60405180910390fd5b60003411610833576040517f08c379a000000000000000000000000000000000000000000000000000000000815260040161082a90611ed9565b60405180910390fd5b600061083f82856113b4565b90503482600401828154811061087e577f4e487b7100000000000000000000000000000000000000000000000000000000600052603260045260246000fd5b9060005260206000209060020201600101600082825461089e91906120bb565b92505081905550348260020160008282546108b991906120bb565b92505081905550348260050160003373ffffffffffffffffffffffffffffffffffffffff1673ffffffffffffffffffffffffffffffffffffffff1681526020019081526020016000206000838152602001908152602001600020600082825461092291906120bb565b925050819055508160060160003373ffffffffffffffffffffffffffffffffffffffff1673ffffffffffffffffffffffffffffffffffffffff16815260200190815260200160002060009054906101000a900460ff16610a3c5760018260060160003373ffffffffffffffffffffffffffffffffffffffff1673ffffffffffffffffffffffffffffffffffffffff16815260200190815260200160002060006101000a81548160ff02191690831515021790555081600701339080600181540180825580915050600190039060005260206000200160009091909190916101000a81548173ffffffffffffffffffffffffffffffffffffffff021916908373ffffffffffffffffffffffffffffffffffffffff1602179055505b3373ffffffffffffffffffffffffffffffffffffffff16857f3a5b25f48e15ab3e4d810304ed7368c35de823921fa3fd504ba8ab2841bf1ad73487604051610a85929190611f34565b60405180910390a35050505050565b60008054906101000a900473ffffffffffffffffffffffffffffffffffffffff1673ffffffffffffffffffffffffffffffffffffffff163373ffffffffffffffffffffffffffffffffffffffff1614610b22576040517f08c379a0000000000000000000000000000000000000000000000000000000008152600401610b1990611e39565b60405180910390fd5b600281511015610b67576040517f08c379a0000000000000000000000000000000000000000000000000000000008152600401610b5e90611e79565b60405180910390fd5b6000600160006002548152602001908152602001600020905082816000019080519060200190610b989291906114c9565b5060005b8251811015610c6457816004016040518060400160405280858481518110610bed577f4e487b7100000000000000000000000000000000000000000000000000000000600052603260045260246000fd5b60200260200101518152602001600081525090806001815401808255809150506001900390600052602060002090600202016000909190919091506000820151816000019080519060200190610c449291906114c9565b506020820151816001015550508080610c5c90612258565b915050610b9c565b506002547f4538c39e84407a3d0f84f8064432d48edac9affc682c4bf829d24b2cd4f1ddda8484604051610c99929190611d8f565b60405180910390a260026000815480929190610cb490612258565b9190505550505050565b60008054906101000a900473ffffffffffffffffffffffffffffffffffffffff1681565b60008054906101000a900473ffffffffffffffffffffffffffffffffffffffff1673ffffffffffffffffffffffffffffffffffffffff163373ffffffffffffffffffffffffffffffffffffffff1614610d70576040517f08c379a0000000000000000000000000000000000000000000000000000000008152600401610d6790611e39565b60405180910390fd5b816002548110610db5576040517f08c379a0000000000000000000000000000000000000000000000000000000008152600401610dac90611e19565b60405180910390fd5b60006001600085815260200190815260200160002090508060010160009054906101000a900460ff1615610e1e576040517f08c379a0000000000000000000000000000000000000000000000000000000008152600401610e1590611e99565b60405180910390fd5b6000610e2a82856113b4565b905060018260010160006101000a81548160ff0219169083151502179055508082600301819055506000826004018281548110610e90577f4e487b7100000000000000000000000000000000000000000000000000000000600052603260045260246000fd5b9060005260206000209060020201600101549050600081111561106f5760005b836007018054905081101561106d576000846007018281548110610efd577f4e487b7100000000000000000000000000000000000000000000000000000000600052603260045260246000fd5b9060005260206000200160009054906101000a900473ffffffffffffffffffffffffffffffffffffffff16905060008560050160008373ffffffffffffffffffffffffffffffffffffffff1673ffffffffffffffffffffffffffffffffffffffff1681526020019081526020016000206000868152602001908152602001600020549050600081111561105857600084876002015483610f9d9190612142565b610fa79190612111565b905060008373ffffffffffffffffffffffffffffffffffffffff1682604051610fcf90611cc1565b60006040518083038185875af1925050503d806000811461100c576040519150601f19603f3d011682016040523d82523d6000602084013e611011565b606091505b5050905080611055576040517f08c379a000000000000000000000000000000000000000000000000000000000815260040161104c90611e59565b60405180910390fd5b50505b5050808061106590612258565b915050610eb0565b505b857fc2e1982e2e7e5f430d49f79ef7583b4996724b83c9e7429c42b12eb9f706de948660405161109f9190611d6d565b60405180910390a2505050505050565b6060808360025481106110f7576040517f08c379a00000000000000000000000000000000000000000000000000000000081526004016110ee90611e19565b60405180910390fd5b60006001600087815260200190815260200160002090506000816004018054905090506000805b828110156111a35760008460050160008a73ffffffffffffffffffffffffffffffffffffffff1673ffffffffffffffffffffffffffffffffffffffff168152602001908152602001600020600083815260200190815260200160002054111561119057818061118c90612258565b9250505b808061119b90612258565b91505061111e565b508067ffffffffffffffff8111156111e4577f4e487b7100000000000000000000000000000000000000000000000000000000600052604160045260246000fd5b6040519080825280602002602001820160405280156112125781602001602082028036833780820191505090505b5095508067ffffffffffffffff811115611255577f4e487b7100000000000000000000000000000000000000000000000000000000600052604160045260246000fd5b6040519080825280602002602001820160405280156112835781602001602082028036833780820191505090505b5094506000805b838110156113a15760008560050160008b73ffffffffffffffffffffffffffffffffffffffff1673ffffffffffffffffffffffffffffffffffffffff1681526020019081526020016000206000838152602001908152602001600020549050600081111561138d578189848151811061132c577f4e487b7100000000000000000000000000000000000000000000000000000000600052603260045260246000fd5b60200260200101818152505080888481518110611372577f4e487b7100000000000000000000000000000000000000000000000000000000600052603260045260246000fd5b602002602001018181525050828061138990612258565b9350505b50808061139990612258565b91505061128a565b5050505050509250929050565b60025481565b600080600090505b836004018054905081101561148757826040516020016113dc9190611c93565b6040516020818303038152906040528051906020012084600401828154811061142e577f4e487b7100000000000000000000000000000000000000000000000000000000600052603260045260246000fd5b906000526020600020906002020160000160405160200161144f9190611caa565b60405160208183030381529060405280519060200120141561147457809150506114c3565b808061147f90612258565b9150506113bc565b506040517f08c379a00000000000000000000000000000000000000000000000000000000081526004016114ba90611ef9565b60405180910390fd5b92915050565b8280546114d590612226565b90600052602060002090601f0160209004810192826114f7576000855561153e565b82601f1061151057805160ff191683800117855561153e565b8280016001018555821561153e579182015b8281111561153d578251825591602001919060010190611522565b5b50905061154b919061154f565b5090565b5b80821115611568576000816000905550600101611550565b5090565b600061157f61157a84611f95565b611f64565b9050808382526020820190508260005b858110156115bf57813585016115a58882611646565b84526020840193506020830192505060018101905061158f565b5050509392505050565b60006115dc6115d784611fc1565b611f64565b9050828152602081018484840111156115f457600080fd5b6115ff8482856121e4565b509392505050565b6000813590506116168161236e565b92915050565b600082601f83011261162d57600080fd5b813561163d84826020860161156c565b91505092915050565b600082601f83011261165757600080fd5b81356116678482602086016115c9565b91505092915050565b60008135905061167f81612385565b92915050565b6000806040838503121561169857600080fd5b600083013567ffffffffffffffff8111156116b257600080fd5b6116be85828601611646565b925050602083013567ffffffffffffffff8111156116db57600080fd5b6116e78582860161161c565b9150509250929050565b60006020828403121561170357600080fd5b600061171184828501611670565b91505092915050565b6000806040838503121561172d57600080fd5b600061173b85828601611670565b925050602061174c85828601611607565b9150509250929050565b6000806040838503121561176957600080fd5b600061177785828601611670565b925050602083013567ffffffffffffffff81111561179457600080fd5b6117a085828601611646565b9150509250929050565b60006117b683836118c7565b905092915050565b60006117ca8383611c75565b60208301905092915050565b6117df8161219c565b82525050565b60006117f082612026565b6117fa8185612061565b93508360208202850161180c85611ff1565b8060005b85811015611848578484038952815161182985826117aa565b945061183483612047565b925060208a01995050600181019050611810565b50829750879550505050505092915050565b600061186582612031565b61186f8185612072565b935061187a83612001565b8060005b838110156118ab57815161189288826117be565b975061189d83612054565b92505060018101905061187e565b5085935050505092915050565b6118c1816121ae565b82525050565b60006118d28261203c565b6118dc818561208e565b93506118ec8185602086016121f3565b6118f58161235d565b840191505092915050565b600061190b8261203c565b611915818561209f565b93506119258185602086016121f3565b61192e8161235d565b840191505092915050565b60006119448261203c565b61194e81856120b0565b935061195e8185602086016121f3565b80840191505092915050565b6000815461197781612226565b61198181866120b0565b9450600182166000811461199c57600181146119ad576119e0565b60ff198316865281860193506119e0565b6119b685612011565b60005b838110156119d8578154818901526001820191506020810190506119b9565b838801955050505b50505092915050565b60006119f660128361209f565b91507f42657420646f6573206e6f7420657869737400000000000000000000000000006000830152602082019050919050565b6000611a3660268361209f565b91507f4f6e6c7920746865206f776e65722063616e20706572666f726d20746869732060008301527f616374696f6e00000000000000000000000000000000000000000000000000006020830152604082019050919050565b6000611a9c60148361209f565b91507f4661696c656420746f2073656e642045746865720000000000000000000000006000830152602082019050919050565b6000611adc60218361209f565b91507f4174206c656173742074776f206f7074696f6e7320617265207265717569726560008301527f64000000000000000000000000000000000000000000000000000000000000006020830152604082019050919050565b6000611b42601d8361209f565b91507f4265742068617320616c7265616479206265656e207265736f6c7665640000006000830152602082019050919050565b6000611b8260158361209f565b91507f42657420686173206265656e207265736f6c76656400000000000000000000006000830152602082019050919050565b6000611bc2600083612083565b9150600082019050919050565b6000611bdc60248361209f565b91507f42657420616d6f756e74206d7573742062652067726561746572207468616e2060008301527f7a65726f000000000000000000000000000000000000000000000000000000006020830152604082019050919050565b6000611c4260158361209f565b91507f4f7074696f6e20646f6573206e6f7420657869737400000000000000000000006000830152602082019050919050565b611c7e816121da565b82525050565b611c8d816121da565b82525050565b6000611c9f8284611939565b915081905092915050565b6000611cb6828461196a565b915081905092915050565b6000611ccc82611bb5565b9150819050919050565b6000602082019050611ceb60008301846117d6565b92915050565b60006060820190508181036000830152611d0b81866117e5565b90508181036020830152611d1f818561185a565b9050611d2e6040830184611c84565b949350505050565b60006040820190508181036000830152611d50818561185a565b90508181036020830152611d64818461185a565b90509392505050565b60006020820190508181036000830152611d878184611900565b905092915050565b60006040820190508181036000830152611da98185611900565b90508181036020830152611dbd81846117e5565b90509392505050565b60006080820190508181036000830152611de08187611900565b9050611def60208301866118b8565b611dfc6040830185611c84565b8181036060830152611e0e8184611900565b905095945050505050565b60006020820190508181036000830152611e32816119e9565b9050919050565b60006020820190508181036000830152611e5281611a29565b9050919050565b60006020820190508181036000830152611e7281611a8f565b9050919050565b60006020820190508181036000830152611e9281611acf565b9050919050565b60006020820190508181036000830152611eb281611b35565b9050919050565b60006020820190508181036000830152611ed281611b75565b9050919050565b60006020820190508181036000830152611ef281611bcf565b9050919050565b60006020820190508181036000830152611f1281611c35565b9050919050565b6000602082019050611f2e6000830184611c84565b92915050565b6000604082019050611f496000830185611c84565b8181036020830152611f5b8184611900565b90509392505050565b6000604051905081810181811067ffffffffffffffff82111715611f8b57611f8a61232e565b5b8060405250919050565b600067ffffffffffffffff821115611fb057611faf61232e565b5b602082029050602081019050919050565b600067ffffffffffffffff821115611fdc57611fdb61232e565b5b601f19601f8301169050602081019050919050565b6000819050602082019050919050565b6000819050602082019050919050565b60008190508160005260206000209050919050565b600081519050919050565b600081519050919050565b600081519050919050565b6000602082019050919050565b6000602082019050919050565b600082825260208201905092915050565b600082825260208201905092915050565b600081905092915050565b600082825260208201905092915050565b600082825260208201905092915050565b600081905092915050565b60006120c6826121da565b91506120d1836121da565b9250827fffffffffffffffffffffffffffffffffffffffffffffffffffffffffffffffff03821115612106576121056122a1565b5b828201905092915050565b600061211c826121da565b9150612127836121da565b925082612137576121366122d0565b5b828204905092915050565b600061214d826121da565b9150612158836121da565b9250817fffffffffffffffffffffffffffffffffffffffffffffffffffffffffffffffff0483118215151615612191576121906122a1565b5b828202905092915050565b60006121a7826121ba565b9050919050565b60008115159050919050565b600073ffffffffffffffffffffffffffffffffffffffff82169050919050565b6000819050919050565b82818337600083830152505050565b60005b838110156122115780820151818401526020810190506121f6565b83811115612220576000848401525b50505050565b6000600282049050600182168061223e57607f821691505b60208210811415612252576122516122ff565b5b50919050565b6000612263826121da565b91507fffffffffffffffffffffffffffffffffffffffffffffffffffffffffffffffff821415612296576122956122a1565b5b600182019050919050565b7f4e487b7100000000000000000000000000000000000000000000000000000000600052601160045260246000fd5b7f4e487b7100000000000000000000000000000000000000000000000000000000600052601260045260246000fd5b7f4e487b7100000000000000000000000000000000000000000000000000000000600052602260045260246000fd5b7f4e487b7100000000000000000000000000000000000000000000000000000000600052604160045260246000fd5b6000601f19601f8301169050919050565b6123778161219c565b811461238257600080fd5b50565b61238e816121da565b811461239957600080fd5b5056fea2646970667358221220cf066040999675e8593282323b19b433cf7282b3598e241126685a0c83c9bfd864736f6c63430008000033",
  "linkReferences": {},
  "deployedLinkReferences": {}
}