{
  "_format": "hh-sol-artifact-1",
  "contractName": "MultiBetERC",
  "sourceName": "contracts/MultiBet-ERC20.sol",
  "abi": [
    {
      "inputs": [
        {
          "internalType": "address",
          "name": "_tokenAddress",
          "type": "address"
        }
      ],
      "stateMutability": "nonpayable",
      "type": "constructor"
    },
    {
      "anonymous": false,
      "inputs": [
        {
          "indexed": true,
          "internalType": "uint256",
          "name": "betId",
          "type": "uint256"
        },
        {
          "indexed": false,
          "internalType": "string",
          "name": "topic",
          "type": "string"
        },
        {
          "indexed": false,
          "internalType": "string[]",
          "name": "options",
          "type": "string[]"
        }
      ],
      "name": "BetCreated",
      "type": "event"
    },
    {
      "anonymous": false,
      "inputs": [
        {
          "indexed": true,
          "internalType": "uint256",
          "name": "betId",
          "type": "uint256"
        },
        {
          "indexed": true,
          "internalType": "address",
          "name": "user",
          "type": "address"
        },
        {
          "indexed": false,
          "internalType": "uint256",
          "name": "amount",
          "type": "uint256"
        },
        {
          "indexed": false,
          "internalType": "string",
          "name": "option",
          "type": "string"
        }
      ],
      "name": "BetPlaced",
      "type": "event"
    },
    {
      "anonymous": false,
      "inputs": [
        {
          "indexed": true,
          "internalType": "uint256",
          "name": "betId",
          "type": "uint256"
        },
        {
          "indexed": false,
          "internalType": "string",
          "name": "winningOption",
          "type": "string"
        }
      ],
      "name": "BetResolved",
      "type": "event"
    },
    {
      "inputs": [],
      "name": "betCount",
      "outputs": [
        {
          "internalType": "uint256",
          "name": "",
          "type": "uint256"
        }
      ],
      "stateMutability": "view",
      "type": "function"
    },
    {
      "inputs": [
        {
          "internalType": "string",
          "name": "_topic",
          "type": "string"
        },
        {
          "internalType": "string[]",
          "name": "_options",
          "type": "string[]"
        }
      ],
      "name": "createBet",
      "outputs": [],
      "stateMutability": "nonpayable",
      "type": "function"
    },
    {
      "inputs": [
        {
          "internalType": "uint256",
          "name": "betId",
          "type": "uint256"
        }
      ],
      "name": "getBet",
      "outputs": [
        {
          "internalType": "string",
          "name": "topic",
          "type": "string"
        },
        {
          "internalType": "bool",
          "name": "isResolved",
          "type": "bool"
        },
        {
          "internalType": "uint256",
          "name": "totalAmount",
          "type": "uint256"
        },
        {
          "internalType": "string",
          "name": "winningOption",
          "type": "string"
        }
      ],
      "stateMutability": "view",
      "type": "function"
    },
    {
      "inputs": [
        {
          "internalType": "uint256",
          "name": "betId",
          "type": "uint256"
        }
      ],
      "name": "getBetOptionInfos",
      "outputs": [
        {
          "internalType": "string[]",
          "name": "options",
          "type": "string[]"
        },
        {
          "internalType": "uint256[]",
          "name": "optionBets",
          "type": "uint256[]"
        },
        {
          "internalType": "uint256",
          "name": "totalAmount",
          "type": "uint256"
        }
      ],
      "stateMutability": "view",
      "type": "function"
    },
    {
      "inputs": [
        {
          "internalType": "uint256",
          "name": "betId",
          "type": "uint256"
        },
        {
          "internalType": "address",
          "name": "user",
          "type": "address"
        }
      ],
      "name": "getUserBet",
      "outputs": [
        {
          "internalType": "uint256[]",
          "name": "optionIndexes",
          "type": "uint256[]"
        },
        {
          "internalType": "uint256[]",
          "name": "betAmounts",
          "type": "uint256[]"
        }
      ],
      "stateMutability": "view",
      "type": "function"
    },
    {
      "inputs": [],
      "name": "hyblockToken",
      "outputs": [
        {
          "internalType": "contract IERC20",
          "name": "",
          "type": "address"
        }
      ],
      "stateMutability": "view",
      "type": "function"
    },
    {
      "inputs": [],
      "name": "owner",
      "outputs": [
        {
          "internalType": "address",
          "name": "",
          "type": "address"
        }
      ],
      "stateMutability": "view",
      "type": "function"
    },
    {
      "inputs": [
        {
          "internalType": "uint256",
          "name": "betId",
          "type": "uint256"
        },
        {
          "internalType": "string",
          "name": "_option",
          "type": "string"
        },
        {
          "internalType": "uint256",
          "name": "amount",
          "type": "uint256"
        }
      ],
      "name": "placeBet",
      "outputs": [],
      "stateMutability": "nonpayable",
      "type": "function"
    },
    {
      "inputs": [
        {
          "internalType": "uint256",
          "name": "betId",
          "type": "uint256"
        },
        {
          "internalType": "string",
          "name": "_winningOption",
          "type": "string"
        }
      ],
      "name": "resolveBet",
      "outputs": [],
      "stateMutability": "nonpayable",
      "type": "function"
    }
  ],
  "bytecode": "0x60806040523480156200001157600080fd5b50604051620027f5380380620027f58339818101604052810190620000379190620000d6565b336000806101000a81548173ffffffffffffffffffffffffffffffffffffffff021916908373ffffffffffffffffffffffffffffffffffffffff16021790555080600160006101000a81548173ffffffffffffffffffffffffffffffffffffffff021916908373ffffffffffffffffffffffffffffffffffffffff1602179055505062000150565b600081519050620000d08162000136565b92915050565b600060208284031215620000e957600080fd5b6000620000f984828501620000bf565b91505092915050565b60006200010f8262000116565b9050919050565b600073ffffffffffffffffffffffffffffffffffffffff82169050919050565b620001418162000102565b81146200014d57600080fd5b50565b61269580620001606000396000f3fe608060405234801561001057600080fd5b50600436106100935760003560e01c80638da5cb5b116100665780638da5cb5b14610135578063b8d64c6114610153578063bd7214e81461016f578063c03fb87c1461018d578063cf094497146101be57610093565b8063061e494f146100985780630803d608146100cb57806343767426146100fd5780636788be0314610119575b600080fd5b6100b260048036038101906100ad9190611862565b6101dc565b6040516100c29493929190612039565b60405180910390f35b6100e560048036038101906100e09190611862565b6103ec565b6040516100f493929190611f49565b60405180910390f35b6101176004803603810190610112919061191b565b61071d565b005b610133600480360381019061012e91906117f6565b610b60565b005b61013d610d8a565b60405161014a9190611ece565b60405180910390f35b61016d600480360381019061016891906118c7565b610dae565b005b6101776111bc565b6040516101849190611fc5565b60405180910390f35b6101a760048036038101906101a2919061188b565b6111e2565b6040516101b5929190611f8e565b60405180910390f35b6101c66114e1565b6040516101d391906121ac565b60405180910390f35b60606000806060846003548110610228576040517f08c379a000000000000000000000000000000000000000000000000000000000815260040161021f9061208c565b60405180910390fd5b600060026000888152602001908152602001600020905080600001805461024e906124d2565b80601f016020809104026020016040519081016040528092919081815260200182805461027a906124d2565b80156102c75780601f1061029c576101008083540402835291602001916102c7565b820191906000526020600020905b8154815290600101906020018083116102aa57829003601f168201915b505050505095508060010160009054906101000a900460ff1694508060020154935084156103d0578060040181600301548154811061032f577f4e487b7100000000000000000000000000000000000000000000000000000000600052603260045260246000fd5b9060005260206000209060020201600001805461034b906124d2565b80601f0160208091040260200160405190810160405280929190818152602001828054610377906124d2565b80156103c45780601f10610399576101008083540402835291602001916103c4565b820191906000526020600020905b8154815290600101906020018083116103a757829003601f168201915b505050505092506103e3565b6040518060200160405280600081525092505b50509193509193565b6060806000836003548110610436576040517f08c379a000000000000000000000000000000000000000000000000000000000815260040161042d9061208c565b60405180910390fd5b60006002600087815260200190815260200160002090506000816004018054905090508067ffffffffffffffff811115610499577f4e487b7100000000000000000000000000000000000000000000000000000000600052604160045260246000fd5b6040519080825280602002602001820160405280156104cc57816020015b60608152602001906001900390816104b75790505b5095508067ffffffffffffffff81111561050f577f4e487b7100000000000000000000000000000000000000000000000000000000600052604160045260246000fd5b60405190808252806020026020018201604052801561053d5781602001602082028036833780820191505090505b50945060005b8181101561070b57826004018181548110610587577f4e487b7100000000000000000000000000000000000000000000000000000000600052603260045260246000fd5b906000526020600020906002020160000180546105a3906124d2565b80601f01602080910402602001604051908101604052809291908181526020018280546105cf906124d2565b801561061c5780601f106105f15761010080835404028352916020019161061c565b820191906000526020600020905b8154815290600101906020018083116105ff57829003601f168201915b505050505087828151811061065a577f4e487b7100000000000000000000000000000000000000000000000000000000600052603260045260246000fd5b60200260200101819052508260040181815481106106a1577f4e487b7100000000000000000000000000000000000000000000000000000000600052603260045260246000fd5b9060005260206000209060020201600101548682815181106106ec577f4e487b7100000000000000000000000000000000000000000000000000000000600052603260045260246000fd5b602002602001018181525050808061070390612504565b915050610543565b50816002015493505050509193909250565b826003548110610762576040517f08c379a00000000000000000000000000000000000000000000000000000000081526004016107599061208c565b60405180910390fd5b60006002600086815260200190815260200160002090508060010160009054906101000a900460ff16156107cb576040517f08c379a00000000000000000000000000000000000000000000000000000000081526004016107c29061214c565b60405180910390fd5b6000831161080e576040517f08c379a00000000000000000000000000000000000000000000000000000000081526004016108059061216c565b60405180910390fd5b600160009054906101000a900473ffffffffffffffffffffffffffffffffffffffff1673ffffffffffffffffffffffffffffffffffffffff166323b872dd3330866040518463ffffffff1660e01b815260040161086d93929190611ee9565b602060405180830381600087803b15801561088757600080fd5b505af115801561089b573d6000803e3d6000fd5b505050506040513d601f19601f820116820180604052508101906108bf91906117cd565b6108fe576040517f08c379a00000000000000000000000000000000000000000000000000000000081526004016108f59061210c565b60405180910390fd5b600061090a82866114e7565b905083826004018281548110610949577f4e487b7100000000000000000000000000000000000000000000000000000000600052603260045260246000fd5b906000526020600020906002020160010160008282546109699190612343565b92505081905550838260020160008282546109849190612343565b92505081905550838260050160003373ffffffffffffffffffffffffffffffffffffffff1673ffffffffffffffffffffffffffffffffffffffff168152602001908152602001600020600083815260200190815260200160002060008282546109ed9190612343565b925050819055508160060160003373ffffffffffffffffffffffffffffffffffffffff1673ffffffffffffffffffffffffffffffffffffffff16815260200190815260200160002060009054906101000a900460ff16610b075760018260060160003373ffffffffffffffffffffffffffffffffffffffff1673ffffffffffffffffffffffffffffffffffffffff16815260200190815260200160002060006101000a81548160ff02191690831515021790555081600701339080600181540180825580915050600190039060005260206000200160009091909190916101000a81548173ffffffffffffffffffffffffffffffffffffffff021916908373ffffffffffffffffffffffffffffffffffffffff1602179055505b3373ffffffffffffffffffffffffffffffffffffffff16867f3a5b25f48e15ab3e4d810304ed7368c35de823921fa3fd504ba8ab2841bf1ad78688604051610b509291906121c7565b60405180910390a3505050505050565b60008054906101000a900473ffffffffffffffffffffffffffffffffffffffff1673ffffffffffffffffffffffffffffffffffffffff163373ffffffffffffffffffffffffffffffffffffffff1614610bee576040517f08c379a0000000000000000000000000000000000000000000000000000000008152600401610be5906120ac565b60405180910390fd5b600281511015610c33576040517f08c379a0000000000000000000000000000000000000000000000000000000008152600401610c2a906120ec565b60405180910390fd5b6000600260006003548152602001908152602001600020905082816000019080519060200190610c649291906115fc565b5060005b8251811015610d3057816004016040518060400160405280858481518110610cb9577f4e487b7100000000000000000000000000000000000000000000000000000000600052603260045260246000fd5b60200260200101518152602001600081525090806001815401808255809150506001900390600052602060002090600202016000909190919091506000820151816000019080519060200190610d109291906115fc565b506020820151816001015550508080610d2890612504565b915050610c68565b506003547f4538c39e84407a3d0f84f8064432d48edac9affc682c4bf829d24b2cd4f1ddda8484604051610d65929190612002565b60405180910390a260036000815480929190610d8090612504565b9190505550505050565b60008054906101000a900473ffffffffffffffffffffffffffffffffffffffff1681565b60008054906101000a900473ffffffffffffffffffffffffffffffffffffffff1673ffffffffffffffffffffffffffffffffffffffff163373ffffffffffffffffffffffffffffffffffffffff1614610e3c576040517f08c379a0000000000000000000000000000000000000000000000000000000008152600401610e33906120ac565b60405180910390fd5b816003548110610e81576040517f08c379a0000000000000000000000000000000000000000000000000000000008152600401610e789061208c565b60405180910390fd5b60006002600085815260200190815260200160002090508060010160009054906101000a900460ff1615610eea576040517f08c379a0000000000000000000000000000000000000000000000000000000008152600401610ee19061212c565b60405180910390fd5b6000610ef682856114e7565b905060018260010160006101000a81548160ff0219169083151502179055508082600301819055506000826004018281548110610f5c577f4e487b7100000000000000000000000000000000000000000000000000000000600052603260045260246000fd5b9060005260206000209060020201600101549050600081111561117c5760005b836007018054905081101561117a576000846007018281548110610fc9577f4e487b7100000000000000000000000000000000000000000000000000000000600052603260045260246000fd5b9060005260206000200160009054906101000a900473ffffffffffffffffffffffffffffffffffffffff16905060008560050160008373ffffffffffffffffffffffffffffffffffffffff1673ffffffffffffffffffffffffffffffffffffffff168152602001908152602001600020600086815260200190815260200160002054905060008111156111655760008487600201548361106991906123ca565b6110739190612399565b9050600160009054906101000a900473ffffffffffffffffffffffffffffffffffffffff1673ffffffffffffffffffffffffffffffffffffffff1663a9059cbb84836040518363ffffffff1660e01b81526004016110d2929190611f20565b602060405180830381600087803b1580156110ec57600080fd5b505af1158015611100573d6000803e3d6000fd5b505050506040513d601f19601f8201168201806040525081019061112491906117cd565b611163576040517f08c379a000000000000000000000000000000000000000000000000000000000815260040161115a906120cc565b60405180910390fd5b505b5050808061117290612504565b915050610f7c565b505b857fc2e1982e2e7e5f430d49f79ef7583b4996724b83c9e7429c42b12eb9f706de94866040516111ac9190611fe0565b60405180910390a2505050505050565b600160009054906101000a900473ffffffffffffffffffffffffffffffffffffffff1681565b60608083600354811061122a576040517f08c379a00000000000000000000000000000000000000000000000000000000081526004016112219061208c565b60405180910390fd5b60006002600087815260200190815260200160002090506000816004018054905090506000805b828110156112d65760008460050160008a73ffffffffffffffffffffffffffffffffffffffff1673ffffffffffffffffffffffffffffffffffffffff16815260200190815260200160002060008381526020019081526020016000205411156112c35781806112bf90612504565b9250505b80806112ce90612504565b915050611251565b508067ffffffffffffffff811115611317577f4e487b7100000000000000000000000000000000000000000000000000000000600052604160045260246000fd5b6040519080825280602002602001820160405280156113455781602001602082028036833780820191505090505b5095508067ffffffffffffffff811115611388577f4e487b7100000000000000000000000000000000000000000000000000000000600052604160045260246000fd5b6040519080825280602002602001820160405280156113b65781602001602082028036833780820191505090505b5094506000805b838110156114d45760008560050160008b73ffffffffffffffffffffffffffffffffffffffff1673ffffffffffffffffffffffffffffffffffffffff168152602001908152602001600020600083815260200190815260200160002054905060008111156114c0578189848151811061145f577f4e487b7100000000000000000000000000000000000000000000000000000000600052603260045260246000fd5b602002602001018181525050808884815181106114a5577f4e487b7100000000000000000000000000000000000000000000000000000000600052603260045260246000fd5b60200260200101818152505082806114bc90612504565b9350505b5080806114cc90612504565b9150506113bd565b5050505050509250929050565b60035481565b600080600090505b83600401805490508110156115ba578260405160200161150f9190611ea0565b60405160208183030381529060405280519060200120846004018281548110611561577f4e487b7100000000000000000000000000000000000000000000000000000000600052603260045260246000fd5b90600052602060002090600202016000016040516020016115829190611eb7565b6040516020818303038152906040528051906020012014156115a757809150506115f6565b80806115b290612504565b9150506114ef565b506040517f08c379a00000000000000000000000000000000000000000000000000000000081526004016115ed9061218c565b60405180910390fd5b92915050565b828054611608906124d2565b90600052602060002090601f01602090048101928261162a5760008555611671565b82601f1061164357805160ff1916838001178555611671565b82800160010185558215611671579182015b82811115611670578251825591602001919060010190611655565b5b50905061167e9190611682565b5090565b5b8082111561169b576000816000905550600101611683565b5090565b60006116b26116ad84612228565b6121f7565b9050808382526020820190508260005b858110156116f257813585016116d8888261178e565b8452602084019350602083019250506001810190506116c2565b5050509392505050565b600061170f61170a84612254565b6121f7565b90508281526020810184848401111561172757600080fd5b611732848285612490565b509392505050565b6000813590506117498161261a565b92915050565b600082601f83011261176057600080fd5b813561177084826020860161169f565b91505092915050565b60008151905061178881612631565b92915050565b600082601f83011261179f57600080fd5b81356117af8482602086016116fc565b91505092915050565b6000813590506117c781612648565b92915050565b6000602082840312156117df57600080fd5b60006117ed84828501611779565b91505092915050565b6000806040838503121561180957600080fd5b600083013567ffffffffffffffff81111561182357600080fd5b61182f8582860161178e565b925050602083013567ffffffffffffffff81111561184c57600080fd5b6118588582860161174f565b9150509250929050565b60006020828403121561187457600080fd5b6000611882848285016117b8565b91505092915050565b6000806040838503121561189e57600080fd5b60006118ac858286016117b8565b92505060206118bd8582860161173a565b9150509250929050565b600080604083850312156118da57600080fd5b60006118e8858286016117b8565b925050602083013567ffffffffffffffff81111561190557600080fd5b6119118582860161178e565b9150509250929050565b60008060006060848603121561193057600080fd5b600061193e868287016117b8565b935050602084013567ffffffffffffffff81111561195b57600080fd5b6119678682870161178e565b9250506040611978868287016117b8565b9150509250925092565b600061198e8383611aae565b905092915050565b60006119a28383611e82565b60208301905092915050565b6119b781612424565b82525050565b60006119c8826122b9565b6119d281856122f4565b9350836020820285016119e485612284565b8060005b85811015611a205784840389528151611a018582611982565b9450611a0c836122da565b925060208a019950506001810190506119e8565b50829750879550505050505092915050565b6000611a3d826122c4565b611a478185612305565b9350611a5283612294565b8060005b83811015611a83578151611a6a8882611996565b9750611a75836122e7565b925050600181019050611a56565b5085935050505092915050565b611a9981612436565b82525050565b611aa88161246c565b82525050565b6000611ab9826122cf565b611ac38185612316565b9350611ad381856020860161249f565b611adc81612609565b840191505092915050565b6000611af2826122cf565b611afc8185612327565b9350611b0c81856020860161249f565b611b1581612609565b840191505092915050565b6000611b2b826122cf565b611b358185612338565b9350611b4581856020860161249f565b80840191505092915050565b60008154611b5e816124d2565b611b688186612338565b94506001821660008114611b835760018114611b9457611bc7565b60ff19831686528186019350611bc7565b611b9d856122a4565b60005b83811015611bbf57815481890152600182019150602081019050611ba0565b838801955050505b50505092915050565b6000611bdd601283612327565b91507f42657420646f6573206e6f7420657869737400000000000000000000000000006000830152602082019050919050565b6000611c1d602683612327565b91507f4f6e6c7920746865206f776e65722063616e20706572666f726d20746869732060008301527f616374696f6e00000000000000000000000000000000000000000000000000006020830152604082019050919050565b6000611c83601483612327565b91507f4661696c656420746f2073656e642045746865720000000000000000000000006000830152602082019050919050565b6000611cc3602183612327565b91507f4174206c656173742074776f206f7074696f6e7320617265207265717569726560008301527f64000000000000000000000000000000000000000000000000000000000000006020830152604082019050919050565b6000611d29601583612327565b91507f546f6b656e207472616e73666572206661696c656400000000000000000000006000830152602082019050919050565b6000611d69601d83612327565b91507f4265742068617320616c7265616479206265656e207265736f6c7665640000006000830152602082019050919050565b6000611da9601583612327565b91507f42657420686173206265656e207265736f6c76656400000000000000000000006000830152602082019050919050565b6000611de9602483612327565b91507f42657420616d6f756e74206d7573742062652067726561746572207468616e2060008301527f7a65726f000000000000000000000000000000000000000000000000000000006020830152604082019050919050565b6000611e4f601583612327565b91507f4f7074696f6e20646f6573206e6f7420657869737400000000000000000000006000830152602082019050919050565b611e8b81612462565b82525050565b611e9a81612462565b82525050565b6000611eac8284611b20565b915081905092915050565b6000611ec38284611b51565b915081905092915050565b6000602082019050611ee360008301846119ae565b92915050565b6000606082019050611efe60008301866119ae565b611f0b60208301856119ae565b611f186040830184611e91565b949350505050565b6000604082019050611f3560008301856119ae565b611f426020830184611e91565b9392505050565b60006060820190508181036000830152611f6381866119bd565b90508181036020830152611f778185611a32565b9050611f866040830184611e91565b949350505050565b60006040820190508181036000830152611fa88185611a32565b90508181036020830152611fbc8184611a32565b90509392505050565b6000602082019050611fda6000830184611a9f565b92915050565b60006020820190508181036000830152611ffa8184611ae7565b905092915050565b6000604082019050818103600083015261201c8185611ae7565b9050818103602083015261203081846119bd565b90509392505050565b600060808201905081810360008301526120538187611ae7565b90506120626020830186611a90565b61206f6040830185611e91565b81810360608301526120818184611ae7565b905095945050505050565b600060208201905081810360008301526120a581611bd0565b9050919050565b600060208201905081810360008301526120c581611c10565b9050919050565b600060208201905081810360008301526120e581611c76565b9050919050565b6000602082019050818103600083015261210581611cb6565b9050919050565b6000602082019050818103600083015261212581611d1c565b9050919050565b6000602082019050818103600083015261214581611d5c565b9050919050565b6000602082019050818103600083015261216581611d9c565b9050919050565b6000602082019050818103600083015261218581611ddc565b9050919050565b600060208201905081810360008301526121a581611e42565b9050919050565b60006020820190506121c16000830184611e91565b92915050565b60006040820190506121dc6000830185611e91565b81810360208301526121ee8184611ae7565b90509392505050565b6000604051905081810181811067ffffffffffffffff8211171561221e5761221d6125da565b5b8060405250919050565b600067ffffffffffffffff821115612243576122426125da565b5b602082029050602081019050919050565b600067ffffffffffffffff82111561226f5761226e6125da565b5b601f19601f8301169050602081019050919050565b6000819050602082019050919050565b6000819050602082019050919050565b60008190508160005260206000209050919050565b600081519050919050565b600081519050919050565b600081519050919050565b6000602082019050919050565b6000602082019050919050565b600082825260208201905092915050565b600082825260208201905092915050565b600082825260208201905092915050565b600082825260208201905092915050565b600081905092915050565b600061234e82612462565b915061235983612462565b9250827fffffffffffffffffffffffffffffffffffffffffffffffffffffffffffffffff0382111561238e5761238d61254d565b5b828201905092915050565b60006123a482612462565b91506123af83612462565b9250826123bf576123be61257c565b5b828204905092915050565b60006123d582612462565b91506123e083612462565b9250817fffffffffffffffffffffffffffffffffffffffffffffffffffffffffffffffff04831182151516156124195761241861254d565b5b828202905092915050565b600061242f82612442565b9050919050565b60008115159050919050565b600073ffffffffffffffffffffffffffffffffffffffff82169050919050565b6000819050919050565b60006124778261247e565b9050919050565b600061248982612442565b9050919050565b82818337600083830152505050565b60005b838110156124bd5780820151818401526020810190506124a2565b838111156124cc576000848401525b50505050565b600060028204905060018216806124ea57607f821691505b602082108114156124fe576124fd6125ab565b5b50919050565b600061250f82612462565b91507fffffffffffffffffffffffffffffffffffffffffffffffffffffffffffffffff8214156125425761254161254d565b5b600182019050919050565b7f4e487b7100000000000000000000000000000000000000000000000000000000600052601160045260246000fd5b7f4e487b7100000000000000000000000000000000000000000000000000000000600052601260045260246000fd5b7f4e487b7100000000000000000000000000000000000000000000000000000000600052602260045260246000fd5b7f4e487b7100000000000000000000000000000000000000000000000000000000600052604160045260246000fd5b6000601f19601f8301169050919050565b61262381612424565b811461262e57600080fd5b50565b61263a81612436565b811461264557600080fd5b50565b61265181612462565b811461265c57600080fd5b5056fea2646970667358221220dab4188440260137fe54194a21312539c06bf6c78ed58c37570b8278d66ddb0664736f6c63430008000033",
  "linkReferences": {},
  "deployedLinkReferences": {}
}